:10000000803147288B1208007E1480310B1D09288F
:100010000A284528B3313D23803101302100EC0707
:100020000030ED3D0130EA070030EB3D20008E1C32
:100030001A281B282F2822004A0821006B02031DC2
:1000400025282200490821006A02031C28282928A3
:100050002F2820008E102100EA01EB014528200006
:100060008E183328342845282200480821006B02C6
:10007000031D3E282200470821006A02031C412874
:100080004228452820008E142B287E10090080313C
:10009000492808308400A03085003D3086000130BA
:1000A00087000A30B331482380312100EE01EA0194
:1000B000EB01EC01ED012200CB01CC01CD01CE0121
:1000C0007E102000B331F32B4D082100DC0020000E
:1000D0004C082100DB0020004B082100DA00200042
:1000E0004A082100D9005C08C9005B08C8005A080A
:1000F000C7005908C600A0311220803143302100CA
:10010000CA00CF30C900A630C8006630C7006808F2
:10011000CE006708CD006608CC006508CB00B3317F
:10012000BC23803140302000B3008030B20000306A
:10013000B1000030B000210068082000B7002100A5
:1001400067082000B600210066082000B5002100E5
:1001500065082000B400AD31C5258031200033088A
:100160002100C900200032082100C8002000310809
:100170002100C700200030082100C600A031122055
:10018000803140302000B3004030B2000030B10078
:100190000030B000210068082000B7002100670887
:1001A0002000B600210066082000B5002100650887
:1001B0002000B400AD31C525803120003308210076
:1001C000C900200032082100C800200031082100A9
:1001D000C700200030082100C600A0311220803165
:1001E00040302000CD000030CC000030CB0000308B
:1001F000CA00210068082000D10021006708200003
:10020000D000210066082000CF00210065082000F2
:10021000CE0098312420803120004D082100D800E4
:1002200020004C082100D70020004B082100D600F8
:1002300020004A082100D5004330CA00CF30C90051
:10024000A630C8006630C7005808CE005708CD0059
:100250005608CC005508CB00B331BC238031403068
:100260002000CD008030CC000030CB000030CA0030
:10027000210068082000D100210067082000D0007C
:10028000210066082000CF00210065082000CE0074
:1002900098312420803120004D082100D800200012
:1002A0004C082100D70020004B082100D600200078
:1002B0004A082100D5004330CA00CF30C900A6301B
:1002C000C8006630C7005808CE005708CD00560851
:1002D000CC005508CB00B331BC2380314030200026
:1002E000CD008030CC000030CB000030CA002100AF
:1002F00068082000D100210067082000D0002100FC
:1003000066082000CF00210065082000CE0098314B
:100310002420803120004D082100E40020004C08FA
:100320002100E30020004B082100E20020004A08E1
:100330002100E1004330CA00CF30C900A630C80018
:100340006630C7006408CE006308CD006208CC00A8
:100350006108CB00A8311420803140302000CD004E
:100360000030CC000030CB000030CA00210068080B
:100370002000D100210067082000D000210066087D
:100380002000CF00210065082000CE0098312420F5
:10039000803120004D082100E40020004C0821009D
:1003A000E30020004B082100E20020004A08210061
:1003B000E1004330CA00E930C9000030C800003015
:1003C000C7006408CE006308CD006208CC00610855
:1003D000CB00A8311420803140302000CD00003007
:1003E000CC000030CB000030CA002100680820009B
:1003F000D100210067082000D000210066082000FD
:10040000CF00210065082000CE00983124208031E3
:1004100020004D082100E40020004C082100E300EA
:1004200020004B082100E20020004A082100E100E2
:100430004330CA00CF30C900A630C8006630C700BC
:100440006408CE006308CD006208CC006108CB00D0
:10045000A8311420803143302100CA00CF30C900B8
:10046000A630C8006630C7006808CE006708CD0017
:100470006608CC006508CB00A831142080314330D9
:100480002100CA00C430C9000030C8000030C700D5
:100490006808CE006708CD006608CC006508CB0070
:1004A000A8311420803140302000B3008030B200E9
:1004B0000030B1000030B000210068082000B70013
:1004C000210067082000B600210066082000B50062
:1004D000210065082000B400AD31C5258031200021
:1004E00033082100C900200032082100C800200084
:1004F00031082100C700200030082100C600A031CB
:100500001220803140302000B3000030B2000030B3
:10051000B1000030B000210068082000B7002100C1
:1005200067082000B600210066082000B500210001
:1005300065082000B400AD31C525803120003308A6
:100540002100E000200032082100DF0020003108F7
:100550002100DE00200030082100DD004330CA0009
:10056000AE30C9009D30C8007130C7006008CE00B1
:100570005F08CD005E08CC005D08CB00A8311420D8
:10058000803121006808C9006708C8006608C700F4
:100590006508C600A0311220803140302000B30031
:1005A0000030B2000030B1000030B0002100680817
:1005B0002000B700210067082000B600210066086F
:1005C0002000B500210065082000B400AD31C5252C
:1005D0008031200033082100E00020003208210093
:1005E000DF00200031082100DE002000300821005B
:1005F000DD004430CA000230C900D030C8000030ED
:10060000C7006008CE005F08CD005E08CC005D0822
:10061000CB00A8311420803140302000CD000030C4
:10062000CC000030CB000030CA0021006808200058
:10063000D100210067082000D000210066082000BA
:10064000CF00210065082000CE00983124208031A1
:1006500020004D082100E40020004C082100E300A8
:1006600020004B082100E20020004A082100E100A0
:100670004330CA00E930C9000030C8000030C7006C
:100680006408CE006308CD006208CC006108CB008E
:10069000A8311420803140302000CD000030CC0043
:1006A0000030CB000030CA00210068082000D100D3
:1006B000210067082000D000210066082000CF003C
:1006C000210065082000CE009831242080312000D0
:1006D0004D082100E40020004C082100E300200028
:1006E0004B082100E20020004A082100E1004330CD
:1006F000CA00E930C9000030C8000030C7006408F3
:10070000CE006308CD006208CC006108CB00A831A0
:100710001420803140302000CD000030CC0000306B
:10072000CB000030CA00210068082000D100210061
:1007300067082000D000210066082000CF002100BB
:1007400065082000CE0098312420803120004D081B
:100750002100DC0020004C082100DB0020004B08B9
:100760002100DA0020004A082100D9005C08C900F5
:100770005B08C8005A08C7005908C600A0311220FB
:10078000803140302000CD000030CC000030CB0064
:100790000030CA00210068082000D100210067084D
:1007A0002000D000210066082000CF00210065084D
:1007B0002000CE0098312420803120004D082100F7
:1007C000D80020004C082100D70020004B08210051
:1007D000D60020004A082100D5004330CA00CF309F
:1007E000C900A630C8006630C7005808CE005708B8
:1007F000CD005608CC005508CB00B331BC23803166
:1008000043302100CA00CF30C900A630C80066308E
:10081000C7006808CE006708CD006608CC006508F0
:10082000CB00A8311420803140302000B30040308C
:10083000B2000030B1000030B00021006808200094
:10084000B700210067082000B600210066082000DC
:10085000B500210065082000B400AD31C525803108
:10086000200033082100C900200032082100C80000
:10087000200031082100C700200030082100C600F8
:10088000A0311220803140302000B3008030B2000F
:100890000030B1000030B000210068082000B7002F
:1008A000210067082000B600210066082000B5007E
:1008B000210065082000B400AD31C525803120003D
:1008C00033082100C900200032082100C8002000A0
:1008D00031082100C700200030082100C600A031E7
:1008E0001220803143302100CA00AE30C9009D3053
:1008F000C8007130C7006808CE006708CD006608E0
:10090000CC006508CB00A831142080314030200095
:10091000CD000030CC000030CB000030CA002100F8
:1009200068082000D100210067082000D0002100C5
:1009300066082000CF00210065082000CE00983115
:100940002420803120004D082100E40020004C08C4
:100950002100E30020004B082100E20020004A08AB
:100960002100E1004330CA00C430C9000030C80093
:100970000030C7006408CE006308CD006208CC00D8
:100980006108CB00A8311420803140302000CD0018
:100990000030CC000030CB000030CA0021006808D5
:1009A0002000D100210067082000D0002100660847
:1009B0002000CF00210065082000CE0098312420BF
:1009C000803120004D082100DC0020004C0821006F
:1009D000DB0020004B082100DA0020004A0821003B
:1009E000D9005C08C9005B08C8005A08C70059084C
:1009F000C600A0311220803140302000B30000300A
:100A0000B2000030B1000030B000210068082000C2
:100A1000B700210067082000B6002100660820000A
:100A2000B500210065082000B400AD31C525803136
:100A3000200033082100E000200032082100DF0000
:100A4000200031082100DE00200030082100DD00F8
:100A50004330CA00CF30C900A630C8006630C70096
:100A60006008CE005F08CD005E08CC005D08CB00BA
:100A7000A8311420803140302000B3008030B20013
:100A80000030B1000030B000210068082000B7003D
:100A9000210067082000B600210066082000B5008C
:100AA000210065082000B400AD31C525803120004B
:100AB00033082100C900200032082100C8002000AE
:100AC00031082100C700200030082100C600A031F5
:100AD0001220803140302000B3004030B20000309E
:100AE000B1000030B000210068082000B7002100EC
:100AF00067082000B600210066082000B50021002C
:100B000065082000B400AD31C525803120003308D0
:100B10002100C900200032082100C800200031084F
:100B20002100C700200030082100C600A03112209B
:100B3000803140302000B3000030B2000030B100FE
:100B40000030B000210068082000B70021006708CD
:100B50002000B600210066082000B50021006508CD
:100B60002000B400AD31C5258031200033082100BC
:100B7000D400200032082100D300200031082100D9
:100B8000D200200030082100D1004330CA00CF300D
:100B9000C900A630C8006630C7005408CE0053080C
:100BA000CD005208CC005108CB00B331BC238031BA
:100BB00040302000CD000030CC000030CB000030B1
:100BC000CA00210068082000D10021006708200029
:100BD000D000210066082000CF0021006508200019
:100BE000CE0098312420803120004D082100E400FF
:100BF00020004C082100E30020004B082100E20007
:100C000020004A082100E1004330CA00E930C90051
:100C10000030C8000030C7006408CE006308CD0073
:100C20006208CC006108CB00A8311420803140302C
:100C30002000CD000030CC000030CB000030CA00D6
:100C4000210068082000D100210067082000D000A2
:100C5000210066082000CF00210065082000CE009A
:100C600098312420803120004D082100E40020002C
:100C70004C082100E30020004B082100E200200086
:100C80004A082100E1004330CA00CF30C900A63035
:100C9000C8006630C7006408CE006308CD00620853
:100CA000CC006108CB00A8311420803143302100F2
:100CB000CA00CF30C900A630C8006630C700680837
:100CC000CE006708CD006608CC006508CB00A831CF
:100CD0001420803143302100CA00C430C9000030E4
:100CE000C8000030C7006808CE006708CD0066085D
:100CF000CC006508CB00A8311420803140302000A2
:100D0000B3008030B2000030B1000030B0002100EC
:100D100068082000B700210067082000B600210005
:100D200066082000B500210065082000B400AD3140
:100D3000C5258031200033082100C9002000320879
:100D40002100C800200031082100C7002000300821
:100D50002100C600A0311220803140302000B300B5
:100D60004030B2000030B1000030B000210068080F
:100D70002000B700210067082000B60021006608A7
:100D80002000B500210065082000B400AD31C52564
:100D90008031200033082100C900200032082100E2
:100DA000C800200031082100C700200030082100C1
:100DB000C600A0311220803143302100CA00C43067
:100DC000C9000030C8000030C7006808CE006708BE
:100DD000CD006608CC006508CB00A8311420803116
:100DE00040302000B3000030B2000030B1000030CD
:100DF000B000210068082000B7002100670820002B
:100E0000B600210066082000B5002100650820001A
:100E1000B400AD31C5258031200033082100E00049
:100E2000200032082100DF00200031082100DE0010
:100E3000200030082100DD004430CA000230C90023
:100E4000D030C8000030C7006008CE005F08CD0079
:100E50005E08CC005D08CB00A83114208031403002
:100E60002000CD000030CC000030CB000030CA00A4
:100E7000210068082000D100210067082000D00070
:100E8000210066082000CF00210065082000CE0068
:100E900098312420803120004D082100E4002000FA
:100EA0004C082100E30020004B082100E200200054
:100EB0004A082100E1004330CA00E930C90000308F
:100EC000C8000030C7006408CE006308CD00620887
:100ED000CC006108CB00A8311420803143302100C0
:100EE000CA00E930C9000030C8000030C7006808F7
:100EF000CE006708CD006608CC006508CB00A8319D
:100F00001420803143302100CA00CF30C900A63000
:100F1000C8006630C7006808CE006708CD006608C4
:100F2000CC006508CB00A83114208031403020006F
:100F3000B3004030B2000030B1000030B0002100FA
:100F400068082000B700210067082000B6002100D3
:100F500066082000B500210065082000B400AD310E
:100F6000C5258031200033082100C9002000320847
:100F70002100C800200031082100C70020003008EF
:100F80002100C600A0311220803140302000CD0069
:100F90000030CC000030CB000030CA0021006808CF
:100FA0002000D100210067082000D0002100660841
:100FB0002000CF00210065082000CE0098312420B9
:100FC000803120004D082100DC0020004C08210069
:100FD000DB0020004B082100DA0020004A08210035
:100FE000D9005C08C9005B08C8005A08C700590846
:100FF000C600A03112208031080020001C1108001A
:1010000020009A011C15080033082100C9002000A7
:1010100032082100C800200031082100C70020004C
:1010200030082100C600A031122088314030200055
:10103000CD000030CC000030CB000030CA002100D1
:1010400068082000D100210067082000D00021009E
:1010500066082000CF00210065082000CE009831EE
:101060002420883120004D082200B00020004C08C8
:101070002200AF0020004B082200AE0020004A08EA
:101080002200AD0043302100CA00CF30C900A63095
:10109000C8006630C700220030082100CE002200C0
:1010A0002F082100CD0022002E082100CC002200B4
:1010B0002D082100CB00B331BC2388314030200003
:1010C000CD008030CC000030CB000030CA002100C1
:1010D00068082000D100210067082000D00021000E
:1010E00066082000CF00210065082000CE0098315E
:1010F0002420883120004D082200B00020004C0838
:101100002200AF0020004B082200AE0020004A0859
:101110002200AD0043302100CA00CF30C900A63004
:10112000C8006630C700220030082100CE0022002F
:101130002F082100CD0022002E082100CC00220023
:101140002D082100CB00B331BC2388314030200072
:10115000CD008030CC000030CB000030CA00210030
:1011600068082000D100210067082000D00021007D
:1011700066082000CF00210065082000CE009831CD
:101180002420883120004D082200BC0020004C089B
:101190002200BB0020004B082200BA0020004A08B1
:1011A0002200B90043302100CA00CF30C900A63068
:1011B000C8006630C70022003C082100CE00220093
:1011C0003B082100CD0022003A082100CC0022007B
:1011D00039082100CB00A83114208831403020008C
:1011E000CD000030CC000030CB000030CA00210020
:1011F00068082000D100210067082000D0002100ED
:1012000066082000CF00210065082000CE0098313C
:101210002420883120004D082200BC0020004C080A
:101220002200BB0020004B082200BA0020004A0820
:101230002200B90043302100CA00E930C900003063
:10124000C8000030C70022003C082100CE00220068
:101250003B082100CD0022003A082100CC002200EA
:1012600039082100CB00A8311420883140302000FB
:10127000CD000030CC000030CB000030CA0021008F
:1012800068082000D100210067082000D00021005C
:1012900066082000CF00210065082000CE009831AC
:1012A0002420883120004D082200BC0020004C087A
:1012B0002200BB0020004B082200BA0020004A0890
:1012C0002200B90043302100CA00CF30C900A63047
:1012D000C8006630C70022003C082100CE00220072
:1012E0003B082100CD0022003A082100CC0022005A
:1012F00039082100CB00A831142088314330210067
:10130000CA00CF30C900A630C8006630C7006808E0
:10131000CE006708CD006608CC006508CB00A83178
:101320001420883143302100CA00C430C900003085
:10133000C8000030C7006808CE006708CD00660806
:10134000CC006508CB00A831142088314030200043
:10135000B3008030B2000030B1000030B000210096
:1013600068082000B700210067082000B6002100AF
:1013700066082000B500210065082000B400AD31EA
:10138000C5258831200033082100C900200032081B
:101390002100C800200031082100C70020003008CB
:1013A0002100C600A0311220883140302000B30057
:1013B0000030B2000030B1000030B00021006808F9
:1013C0002000B700210067082000B6002100660851
:1013D0002000B500210065082000B400AD31C5250E
:1013E0008831200033082200B80020003208220093
:1013F000B700200031082200B6002000300822008B
:10140000B50043302100CA00AE30C9009D30C8008D
:101410007130C700220038082100CE0022003708B2
:101420002100CD00220036082100CC002200350822
:101430002100CB00A8311420883121006808C900A0
:101440006708C8006608C7006508C600A0311220FA
:10145000883140302000B3000030B2000030B100CD
:101460000030B000210068082000B70021006708A4
:101470002000B600210066082000B50021006508A4
:101480002000B400AD31C52588312000330822008A
:10149000B800200032082200B700200031082200E6
:1014A000B600200030082200B50044302100CA00F8
:1014B0000230C900D030C8000030C7002200380810
:1014C0002100CE00220037082100CD00220036087E
:1014D0002100CC00220035082100CB00A8311420C7
:1014E000883140302000CD000030CC000030CB00EF
:1014F0000030CA00210068082000D10021006708E0
:101500002000D000210066082000CF0021006508DF
:101510002000CE0098312420883120004D08220080
:10152000BC0020004C082200BB0020004B08220019
:10153000BA0020004A082200B90043302100CA0046
:10154000E930C9000030C8000030C70022003C0864
:101550002100CE0022003B082100CD0022003A08E5
:101560002100CC00220039082100CB00A831142032
:10157000883140302000CD000030CC000030CB005E
:101580000030CA00210068082000D100210067084F
:101590002000D000210066082000CF00210065084F
:1015A0002000CE0098312420883120004D082200F0
:1015B000BC0020004C082200BB0020004B08220089
:1015C000BA0020004A082200B90043302100CA00B6
:1015D000E930C9000030C8000030C70022003C08D4
:1015E0002100CE0022003B082100CD0022003A0855
:1015F0002100CC00220039082100CB00A8311420A2
:10160000883140302000CD000030CC000030CB00CD
:101610000030CA00210068082000D10021006708BE
:101620002000D000210066082000CF0021006508BE
:101630002000CE0098312420883120004D0822005F
:10164000B40020004C082200B30020004B08220008
:10165000B20020004A082200B10034082100C9006D
:10166000220033082100C800220032082100C700F0
:10167000220031082100C600A031122088314030FC
:101680002000CD000030CC000030CB000030CA007C
:10169000210068082000D100210067082000D00048
:1016A000210066082000CF00210065082000CE0040
:1016B00098312420883120004D082200B0002000FD
:1016C0004C082200AF0020004B082200AE00200092
:1016D0004A082200AD0043302100CA00CF30C900C3
:1016E000A630C8006630C700220030082100CE00B6
:1016F00022002F082100CD0022002E082100CC005E
:1017000022002D082100CB00B331BC2388314330A7
:101710002100CA00CF30C900A630C8006630C7001B
:101720006808CE006708CD006608CC006508CB00CD
:10173000A8311420883140302000B3004030B2007E
:101740000030B1000030B000210068082000B70070
:10175000210067082000B600210066082000B500BF
:10176000210065082000B400AD31C5258831200076
:1017700033082100C900200032082100C8002000E1
:1017800031082100C700200030082100C600A03128
:101790001220883140302000B3008030B200003089
:1017A000B1000030B000210068082000B70021001F
:1017B00067082000B600210066082000B50021005F
:1017C00065082000B400AD31C525883120003308FC
:1017D0002100C900200032082100C8002000310883
:1017E0002100C700200030082100C600A0311220CF
:1017F000883143302100CA00AE30C9009D30C80096
:101800007130C7006808CE006708CD006608CC00BC
:101810006508CB00A8311420883140302000CD006D
:101820000030CC000030CB000030CA002100680836
:101830002000D100210067082000D00021006608A8
:101840002000CF00210065082000CE009831242020
:10185000883120004D082200BC0020004C082200E6
:10186000BB0020004B082200BA0020004A082200DA
:10187000B90043302100CA00C430C9000030C8009C
:101880000030C70022003C082100CE0022003B08A7
:101890002100CD0022003A082100CC0022003908A6
:1018A0002100CB00A8311420883140302000CD0029
:1018B0000030CC000030CB000030CA0021006808A6
:1018C0002000D100210067082000D0002100660818
:1018D0002000CF00210065082000CE009831242090
:1018E000883120004D082200B40020004C0822005E
:1018F000B30020004B082200B20020004A0822005A
:10190000B10034082100C900220033082100C800BA
:10191000220032082100C700220031082100C60041
:10192000A0311220883140302000B3000030B200D6
:101930000030B1000030B000210068082000B7007E
:10194000210067082000B600210066082000B500CD
:10195000210065082000B400AD31C5258831200084
:1019600033082200B800200032082200B70020000F
:1019700031082200B600200030082200B5004330B4
:101980002100CA00CF30C900A630C8006630C700A9
:10199000220038082100CE00220037082100CD00A7
:1019A000220036082100CC00220035082100CB009F
:1019B000A8311420883140302000B3008030B200BC
:1019C0000030B1000030B000210068082000B700EE
:1019D000210067082000B600210066082000B5003D
:1019E000210065082000B400AD31C52588312000F4
:1019F00033082100C900200032082100C80020005F
:101A000031082100C700200030082100C600A031A5
:101A10001220883140302000B3004030B200003046
:101A2000B1000030B000210068082000B70021009C
:101A300067082000B600210066082000B5002100DC
:101A400065082000B400AD31C52588312000330879
:101A50002100C900200032082100C8002000310800
:101A60002100C700200030082100C600A03112204C
:101A7000883140302000B3000030B2000030B100A7
:101A80000030B000210068082000B700210067087E
:101A90002000B600210066082000B500210065087E
:101AA0002000B400AD31C525883120003308220064
:101AB000A300200032082200A200200031082200EA
:101AC000A100200030082200A00043302100CA00FD
:101AD000CF30C900A630C8006630C70022002308F6
:101AE0002100CE00220022082100CD002200210882
:101AF0002100CC00220020082100CB00B331BC2300
:101B0000883140302000CD000030CC000030CB00C8
:101B10000030CA00210068082000D10021006708B9
:101B20002000D000210066082000CF0021006508B9
:101B30002000CE0098312420883120004D0822005A
:101B4000BC0020004C082200BB0020004B082200F3
:101B5000BA0020004A082200B90043302100CA0020
:101B6000E930C9000030C8000030C70022003C083E
:101B70002100CE0022003B082100CD0022003A08BF
:101B80002100CC00220039082100CB00A83114200C
:101B9000883140302000CD000030CC000030CB0038
:101BA0000030CA00210068082000D1002100670829
:101BB0002000D000210066082000CF002100650829
:101BC0002000CE0098312420883120004D082200CA
:101BD000BC0020004C082200BB0020004B08220063
:101BE000BA0020004A082200B90043302100CA0090
:101BF000CF30C900A630C8006630C70022003C08BC
:101C00002100CE0022003B082100CD0022003A082E
:101C10002100CC00220039082100CB00A83114207B
:101C2000883143302100CA00CF30C900A630C80037
:101C30006630C7006808CE006708CD006608CC0093
:101C40006508CB00A8311420883143302100CA0038
:101C5000C430C9000030C8000030C7006808CE009A
:101C60006708CD006608CC006508CB00A8311420B9
:101C7000883140302000B3008030B2000030B10025
:101C80000030B000210068082000B700210067087C
:101C90002000B600210066082000B500210065087C
:101CA0002000B400AD31C525883120003308210063
:101CB000C900200032082100C8002000310821009E
:101CC000C700200030082100C600A0311220883152
:101CD00040302000B3004030B2000030B10000308E
:101CE000B000210068082000B7002100670820002C
:101CF000B600210066082000B5002100650820001C
:101D0000B400AD31C5258831200033082100C90059
:101D1000200032082100C800200031082100C7003F
:101D2000200030082100C600A03112208831433045
:101D30002100CA00C430C9000030C8000030C7000C
:101D40006808CE006708CD006608CC006508CB00A7
:101D5000A8311420883140302000B3000030B20098
:101D60000030B1000030B000210068082000B7004A
:101D7000210067082000B600210066082000B50099
:101D8000210065082000B400AD31C5258831200050
:101D900033082200B800200032082200B7002000DB
:101DA00031082200B600200030082200B50044307F
:101DB0002100CA000230C900D030C8000030C7007E
:101DC000220038082100CE00220037082100CD0073
:101DD000220036082100CC00220035082100CB006B
:101DE000A8311420883140302000CD000030CC00D4
:101DF0000030CB000030CA00210068082000D1006C
:101E0000210067082000D000210066082000CF00D4
:101E1000210065082000CE00983124208831200060
:101E20004D082200BC0020004C082200BB0020000E
:101E30004B082200BA0020004A082200B9004330B3
:101E40002100CA00E930C9000030C8000030C700D6
:101E500022003C082100CE0022003B082100CD00DA
:101E600022003A082100CC00220039082100CB00D2
:101E7000A8311420883143302100CA00E930C9005C
:101E80000030C8000030C7006808CE006708CD00E9
:101E90006608CC006508CB00A83114208831433097
:101EA0002100CA00CF30C900A630C8006630C70084
:101EB0006808CE006708CD006608CC006508CB0036
:101EC000A8311420883140302000B3004030B200E7
:101ED0000030B1000030B000210068082000B700D9
:101EE000210067082000B600210066082000B50028
:101EF000210065082000B400AD31C52588312000DF
:101F000033082100C900200032082100C800200049
:101F100031082100C700200030082100C600A03190
:101F20001220883140302000CD000030CC0000303D
:101F3000CB000030CA00210068082000D100210039
:101F400067082000D000210066082000CF00210093
:101F500065082000CE0098312420883120004D08EB
:101F60002200B40020004C082200B30020004B08DF
:101F70002200B20020004A082200B10034082100EB
:101F8000C900220033082100C800220032082100C5
:101F9000C700220031082100C600A031122088317C
:101FA00041302000B3004030B2000030B1000030BA
:101FB000B000210068082000B70021006708200059
:101FC000B600210066082000B50021006508200049
:101FD000B400AD31C5258831200033082100C90087
:101FE000200032082100C800200031082100C7006D
:101FF000200030082100C600A031122088310800DE
:1020020003102100320D330DB9003908031D0A28CF
:102012000B2814280030B3000030B2000030B100A9
:102022000030B00071283008B4003108B500320821
:10203200B6003308B7001F30B736B60CB50CB40C77
:10204200890B1D283408B800B217FF30B005FF30E5
:10205200B105FF30B2050030B3059630B902B91FA1
:10206200332834284C283908803A973E03183A28F6
:102072003B283C280B280130B336B20CB10CB00C13
:10208200890B3D280130B4003408B907031D4A28E2
:102092004B283C28612820303902031C5128522841
:1020A2005C280B280130B035B10DB20DB30D890B90
:1020B20054280130B9023908031D602861285328C9
:1020C20038080319652866287128B009B109B209D0
:1020D200B309B00A0319B10A0319B20A0319B30A00
:1020E200080040302000B3004030B2000030B100A0
:1020F2000030B000210068082000B7002100670806
:102102002000B600210066082000B5002100650805
:102112002000B400AD31C5259031200033082100E4
:10212200C900200032082100C80020003108210027
:10213200C700200030082100C600A03112209031D3
:1021420040302000B3000030B2000030B100003057
:10215200B000210068082000B700210067082000B5
:10216200B600210066082000B500210065082000A5
:10217200B400AD31C5259031200033082100D800CC
:10218200200032082100D700200031082100D600AB
:10219200200030082100D5004330CA00E930C900D0
:1021A2000030C8000030C7005808CE005708CD00E4
:1021B2005608CC005508CB00A83114209031443089
:1021C2002100CA000230C900D030C8000030C70068
:1021D2006808CE006708CD006608CC006508CB0011
:1021E200A8311420903140302000B3000030B200FA
:1021F2000030B1000030B000210068082000B700B4
:10220200210067082000B600210066082000B50002
:10221200210065082000B400AD31C52590312000B1
:1022220033082100D800200032082100D700200006
:1022320031082100D600200030082100D5004430AA
:10224200CA000A30C9009730C800AE30C70058082B
:10225200CE005708CD005608CC005508CB00A83157
:102262001420903144302100CA004330C900FF30AD
:10227200C8005C30C7006808CE006708CD00660859
:10228200CC006508CB00B331BC2390314030200034
:10229200B3004030B2000030B1000030B000210085
:1022A20068082000B700210067082000B60021005E
:1022B20066082000B500210065082000B400AD3199
:1022C200C5259031200033082100D40020003208B7
:1022D2002100D300200031082100D2002000300864
:1022E2002100D1004430CA004F30C900A730C800D5
:1022F2000A30C7005408CE005308CD005208CC0063
:102302005108CB00B331BC23903140302000B300E0
:102312004030B2000030B1000030B0002100680847
:102322002000B700210067082000B60021006608DF
:102332002000B500210065082000B400AD31C5259C
:102342009031200033082100D400200032082100FF
:10235200D300200031082100D200200030082100E3
:10236200D1004430CA004F30C900A730C8000A303B
:10237200C7005408CE005308CD005208CC005108C3
:10238200CB00B331BC23903140302000B300003089
:10239200B2000030B1000030B00021006808200017
:1023A200B700210067082000B6002100660820005F
:1023B200B500210065082000B400AD31C52590317B
:1023C200200033082100D800200032082100D70065
:1023D200200031082100D600200030082100D5005D
:1023E2004430CA000A30C9009730C800AE30C70076
:1023F2005808CE005708CD005608CC005508CB002F
:10240200A8311420903144302100CA000230C900A2
:10241200D030C8000030C7006808CE006708CD0081
:102422006608CC006508CB00A831142090314030FA
:102432002000B3000030B2000030B1000030B00024
:10244200210068082000B700210067082000B600BC
:10245200210066082000B500210065082000B400B4
:10246200AD31C5259031200033082100D80020006D
:1024720032082100D700200031082100D6002000B8
:1024820030082100D5004430CA000230C900D030E3
:10249200C8000030C7005808CE005708CD005608C3
:1024A200CC005508CB00A8311420903140302000D8
:1024B200B3000030B2000030B1000030B0002100A3
:1024C20068082000B700210067082000B60021003C
:1024D20066082000B500210065082000B400AD3177
:1024E200C5259031200033082100D4002000320895
:1024F2002100D300200031082100D2002000300842
:102502002100D1004430CA006930C9001530C8002A
:102512001F30C7005408CE005308CD005208CC002B
:102522005108CB00B331BC23903140302000B300BE
:102532000030B2000030B1000030B0002100680865
:102542002000B700210067082000B60021006608BD
:102552002000B500210065082000B400AD31C5257A
:102562009031200033082100D400200032082100DD
:10257200D300200031082100D200200030082100C1
:10258200D1004430CA004F30C900A730C8000A3019
:10259200C7005408CE005308CD005208CC005108A1
:1025A200CB00B331BC23903140302000B300A030C7
:1025B200B2000030B1000030B000210068082000F5
:1025C200B700210067082000B6002100660820003D
:1025D200B500210065082000B400AD31C525903159
:1025E200200033082100D800200032082100D70043
:1025F200200031082100D600200030082100D5003B
:102602004430CA004F30C900A730C8000A30C700A2
:102612005808CE005708CD005608CC005508CB000C
:10262200A8311420903144302100CA004330C9003F
:10263200FF30C8005C30C7006808CE006708CD00D4
:102642006608CC006508CB00A831142090314030D8
:102652002000B300C030B2000030B1000030B00042
:10266200210068082000B700210067082000B6009A
:10267200210066082000B500210065082000B40092
:10268200AD31C5259031200033082100D80020004B
:1026920032082100D700200031082100D600200096
:1026A20030082100D5004430CA004F30C900A7309D
:1026B200C8000A30C7005808CE005708CD00560897
:1026C200CC005508CB00A8311420903140302000B6
:1026D200B300C030B2000030B1000030B0002100C1
:1026E20068082000B700210067082000B60021001A
:1026F20066082000B500210065082000B400AD3155
:10270200C5259031200033082100C900200032087D
:102712002100C800200031082100C7002000300835
:102722002100C600A0311220903140302000B300B9
:10273200A030B2000030B1000030B00021006808C3
:102742002000B700210067082000B60021006608BB
:102752002000B500210065082000B400AD31C52578
:102762009031200033082100D400200032082100DB
:10277200D300200031082100D200200030082100BF
:10278200D1004430CA004F30C900A730C8000A3017
:10279200C7005408CE005308CD005208CC0051089F
:1027A200CB00B331BC23903144302100CA00433006
:1027B200C900FF30C8005C30C7006808CE00670857
:1027C200CD006608CC006508CB00B331BC23903144
:1027D20044302100CA002E30C9009D30C80071303B
:1027E200C7006808CE006708CD006608CC006508FF
:1027F200CB00B331BC23903140302000B300003015
:10280200B2000030B1000030B000210068082000A2
:10281200B700210067082000B600210066082000EA
:10282200B500210065082000B400AD31C525903106
:10283200200033082100C900200032082100C8000E
:10284200200031082100C700200030082100C60006
:10285200A0311220903140302000B3000030B2008D
:102862000030B1000030B000210068082000B7003D
:10287200210067082000B600210066082000B5008C
:10288200210065082000B400AD31C525903120003B
:1028920033082100D800200032082100D700200090
:1028A20031082100D600200030082100D500433035
:1028B200CA00E930C9000030C8000030C70058081B
:1028C200CE005708CD005608CC005508CB00A831E1
:1028D2001420903144302100CA000230C900D030A7
:1028E200C8000030C7006808CE006708CD0066083F
:1028F200CC006508CB00A831142090314030200074
:10290200B3000030B2000030B1000030B00021004E
:1029120068082000B700210067082000B6002100E7
:1029220066082000B500210065082000B400AD3122
:10293200C5259031200033082100D800200032083C
:102942002100D700200031082100D60020003008E5
:102952002100D5004430CA000A30C9009730C800AF
:10296200AE30C7005808CE005708CD005608CC003C
:102972005508CB00A8311420903144302100CA0000
:102982004330C900FF30C8005C30C7006808CE0081
:102992006708CD006608CC006508CB00B331BC23C4
:1029A200903140302000B3004030B2000030B1001E
:1029B2000030B000210068082000B700210067083D
:1029C2002000B600210066082000B500210065083D
:1029D2002000B400AD31C52590312000330821001C
:1029E200D400200032082100D30020003108210049
:1029F200D200200030082100D1004430CA004F30FC
:102A0200C900A730C8000A30C7005408CE005308D6
:102A1200CD005208CC005108CB00B331BC23903119
:102A220040302000B3004030B2000030B10000302E
:102A3200B000210068082000B700210067082000CC
:102A4200B600210066082000B500210065082000BC
:102A5200B400AD31C5259031200033082100D400E7
:102A6200200032082100D300200031082100D200CA
:102A7200200030082100D1004430CA004F30C90084
:102A8200A730C8000A30C7005408CE005308CD0052
:102A92005208CC005108CB00B331BC2390314030F6
:102AA2002000B3000030B2000030B1000030B000AE
:102AB200210068082000B700210067082000B60046
:102AC200210066082000B500210065082000B4003E
:102AD200AD31C5259031200033082100C900200006
:102AE20032082100C800200031082100C700200060
:102AF20030082100C600A03112209031443021005C
:102B0200CA000230C900D030C8000030C7006808CF
:102B1200CE006708CD006608CC006508CB00A8315E
:102B22001420903144302100CA000230C900D03054
:102B3200C8000030C7006808CE006708CD006608EC
:102B4200CC006508CB00A831142090314030200021
:102B5200B3000030B2000030B1000030B0002100FC
:102B620068082000B700210067082000B600210095
:102B720066082000B500210065082000B400AD31D0
:102B8200C5259031200033082100C90020003208F9
:102B92002100C800200031082100C70020003008B1
:102BA2002100C600A0311220903140302000B30035
:102BB2004030B2000030B1000030B000210068089F
:102BC2002000B700210067082000B6002100660837
:102BD2002000B500210065082000B400AD31C525F4
:102BE2009031200033082100D40020003208210057
:102BF200D300200031082100D2002000300821003B
:102C0200D1004430CA006930C9001530C8001F30F5
:102C1200C7005408CE005308CD005208CC0051081A
:102C2200CB00B331BC23903140302000B3004030A0
:102C3200B2000030B1000030B0002100680820006E
:102C4200B700210067082000B600210066082000B6
:102C5200B500210065082000B400AD31C5259031D2
:102C6200200033082100D800200032082100D700BC
:102C7200200031082100D600200030082100D500B4
:102C82004430CA004F30C900A730C8000A30C7001C
:102C92005808CE005708CD005608CC005508CB0086
:102CA200A8311420903140302000B3000030B2002F
:102CB2000030B1000030B000210068082000B700E9
:102CC200210067082000B600210066082000B50038
:102CD200210065082000B400AD31C52590312000E7
:102CE20033082100C900200032082100C80020005A
:102CF20031082100C700200030082100C600A031A1
:102D02001220903144302100CA004330C900FF3004
:102D1200C8005C30C7006808CE006708CD006608AE
:102D2200CC006508CB00A83114209031403020003F
:102D3200B300C030B2000030B1000030B00021005A
:102D420068082000B700210067082000B6002100B3
:102D520066082000B500210065082000B400AD31EE
:102D6200C5259031200033082100D8002000320808
:102D72002100D700200031082100D60020003008B1
:102D82002100D5004430CA004F30C900A730C80026
:102D92000A30C7005808CE005708CD005608CC00AC
:102DA2005508CB00A8311420903140302000B300E8
:102DB2008030B2000030B1000030B000210068085D
:102DC2002000B700210067082000B6002100660835
:102DD2002000B500210065082000B400AD31C525F2
:102DE2009031200033082100C90020003208210060
:102DF200C800200031082100C7002000300821004F
:102E0200C600A0311220903144302100CA0069303E
:102E1200C9001530C8001F30C7006808CE00670817
:102E2200CD006608CC006508CB00B331BC239031DD
:102E320044302100CA004F30C900A730C8000A3010
:102E4200C7006808CE006708CD006608CC00650898
:102E5200CB00B331BC23903140302000B300A0300E
:102E6200B2000030B1000030B0002100680820003C
:102E7200B700210067082000B60021006608200084
:102E8200B500210065082000B400AD31C5259031A0
:102E9200200033082100D800200032082100D7008A
:102EA200200031082100D600200030082100D50082
:102EB2004430CA008230C900D030C8000030C70098
:102EC2005808CE005708CD005608CC005508CB0054
:102ED200A8311420903144302100CA006930C90061
:102EE2001530C8001F30C7006808CE006708CD0043
:102EF2006608CC006508CB00A8311420903144301C
:102F02002100CA004F30C900A730C8000A30C700EC
:102F12006808CE006708CD006608CC006508CB00C3
:102F2200A8311420903144302100CA004F30C9002A
:102F3200A730C8000A30C7006808CE006708CD0075
:102F42006608CC006508CB00A831142090314430CB
:102F52002100CA004F30C900A730C8000A30C7009C
:102F62006808CE006708CD006608CC006508CB0073
:102F7200A8311420903144302100CA004F30C900DA
:102F8200A730C8000A30C7006808CE006708CD0025
:102F92006608CC006508CB00A8311420903140307F
:102FA2002000B3000030B2000030B1000030B000A9
:102FB200210068082000B700210067082000B60041
:102FC200210066082000B500210065082000B40039
:102FD200AD31C5259031200033082100C900200001
:102FE20032082100C800200031082100C70020005B
:0E2FF20030082100C600A031122090310800E6
:10300200F800F401F5017008F200F3017208F6000D
:103012007308F700781C0E280F2813287608F40787
:103022007708F53D0130F635F70D890B14280310AA
:10303200F80C7808031D1E281F280B287508F100BC
:103042007408F0000800200051088039DB00513577
:10305200E200D01F2D282E282F286214620803199F
:10306200332834284428620A031D38283928412885
:103072000030D1000030D0000030CF000030CE0050
:10308200D017D1014C280030D1000030D0000030E0
:10309200CF000030CE004D088039D2005208DB0646
:1030A2004D35E300CC1F562857285828631463086F
:1030B20003195C285D286D28630A031D61286228B4
:1030C2006A280030CD000030CC000030CB00003048
:1030D200CA00CC17CD0175280030CD000030CC00DD
:1030E2000030CB000030CA004D084C044B044A04A7
:1030F200031D7C287D2896280030D1000030D000A6
:103102000030CF000030CE008030D0047F30D104B8
:103112005B08D2005208D1045108CD005008CC00FF
:103122004F08CB004E08CA00CD296208031D9A2819
:103132009B28A4280030CD000030CC000030CB000A
:103142000030CA00CD296208D200D3015308D5004D
:1031520063085202D400031CD50354087F3EDC00EE
:103162000030553DDD005108DA005008D9004F0803
:10317200D8004E08D7000030D1000030D000003017
:10318200CF000030CE000030E1000030E00000301F
:10319200DF000030DE00E3010C2963080319D228A6
:1031A200D328ED280130D735D80DD90DDA0D890B8A
:1031B200D4280130CE35CF0DD00DD10D890BDB28AF
:1031C200E11FE428E528E6284E140130DE35DF0D44
:1031D200E00DE10D890BE7284D085A02031DFB287B
:1031E2004C085902031DFB284B085802031DFB28FB
:1031F2004A085702031CFE28FF28082961174A08BB
:10320200D7024B08D83B4C08D93B4D08DA3B01307A
:10321200D2005208E3071A306302031C1129122953
:10322200CE285A08590458045704031919291A298F
:1032320033295E1433290130CE35CF0DD00DD10D97
:10324200890B1D29E11F2629272928294E1401301F
:10325200DE35DF0DE00DE10D890B2929FF30DC079A
:10326200FF30DD3DD01F362937291C29E301E11F3C
:103272003B293C295829FF305E05D200FF305F050B
:10328200D300FF306005D4007F306105D5005508BA
:1032920054045304520403194F2950295329E301BA
:1032A200E30A58294E1C56295729582950296308E0
:1032B20003195C295D2985290130CE070030CF3DF5
:1032C2000030D03D0030D13D511C68296929852943
:1032D2004E08D2004F08D3005008D4005108D50040
:1032E2000130D600D537D40CD30CD20CD60B7329AF
:1032F2005508D1005408D0005308CF005208CE0020
:103302000130DC070030DD3D5D08803AD2008030BC
:103312005202031D8E29FF305C02031C912992295F
:103322009F29FF302000DC000030DD000030D1009A
:103332000030D0000030CF000030CE0020005D0809
:10334200803AD20080305202031DA92901305C026A
:103352000318AC29AD29B9292000DC01DD010030B8
:10336200D1000030D0000030CF000030CE00DB01B1
:1033720020005C08E200621CBF29C029C229D017C4
:10338200C6297F30D2005208D0056236D1005B08D0
:10339200D2005208D1048D2808002100D101D201A7
:1033A20043302100CA00CF30C900A630C8006630C1
:1033B200C7006808CE006708CD006608CC00650823
:1033C200CB00A8311420993143302100CA00CF30FC
:1033D200C900A630C8006630C7006808CE0067087A
:1033E200CD006608CC006508CB00A83114209931C5
:1033F20043302100CA00CF30C900A630C800663071
:10340200C7006808CE006708CD006608CC006508D2
:10341200CB00A8311420993140302000B300003095
:10342200B2000030B1000030B00021006808200076
:10343200B700210067082000B600210066082000BE
:10344200B500210065082000B400AD31C5259931D1
:10345200200033082100D600200032082100D500C8
:10346200200031082100D400200030082100D300C0
:103472004330CA00E930C9000030C8000030C7003C
:103482005608CE005508CD005408CC005308CB0096
:10349200A8311420993143302100CA00E930C90013
:1034A2000030C8000030C7006808CE006708CD00B1
:1034B2006608CC006508CB00A8311420993143304E
:1034C2002100CA00CF30C900A630C8006630C7004C
:1034D2006808CE006708CD006608CC006508CB00FE
:1034E200A8311420993143302100CA00CF30C900DD
:1034F200A630C8006630C7006808CE006708CD0055
:103502006608CC006508CB00A831142099314330FD
:103512002100CA00CF30C900A630C8006630C700FB
:103522006808CE006708CD006608CC006508CB00AD
:10353200A8311420993143302100CA00E930C90072
:103542000030C8000030C7006808CE006708CD0010
:103552006608CC006508CB00A831142099314030B0
:103562002000B3000030B2000030B1000030B000E3
:10357200210068082000B700210067082000B6007B
:10358200210066082000B500210065082000B40073
:10359200AD31C5259931200033082100C900200032
:1035A20032082100C800200031082100C700200095
:1035B20030082100C600A031122099314330210089
:1035C200CA00C430C9000030C8000030C700680813
:1035D200CE006708CD006608CC006508CB00A83194
:1035E2001420993143302100CA00C430C900003090
:1035F200C8000030C7006808CE006708CD00660822
:10360200CC006508CB00A831142099314330210049
:10361200CA00C430C9000030C8000030C7006808C2
:10362200CE006708CD006608CC006508CB00A83143
:103632001420993140302000B3000030B200003035
:10364200B1000030B000210068082000B70021005E
:1036520067082000B600210066082000B50021009E
:1036620065082000B400AD31C5259931200033082A
:103672002100D600200032082100D50020003108A8
:103682002100D400200030082100D3004330CA00BA
:10369200CF30C900A630C8006630C7005608CE0039
:1036A2005508CD005408CC005308CB00A831142093
:1036B200993143302100CA00C430C9000030C8002B
:1036C2000030C7006808CE006708CD006608CC004D
:1036D2006508CB00A8311420993121006808C9007F
:1036E2006708C8006608C7006508C600A031122036
:1036F200993143302100CA00E930C9000030C800C6
:103702000030C7006808CE006708CD006608CC000C
:103712006508CB00A8311420993143302100CA003A
:10372200C430C9000030C8000030C7006808CE00AD
:103732006708CD006608CC006508CB00A8311420CC
:10374200993140302000CD000030CC000030CB0059
:103752000030CA00210068082000D100210067085B
:103762002000D000210066082000CF00210065085B
:103772002000CE0098312420993120004D082100EC
:10378200DA0020004C082100D90020004B0821005B
:10379200D80020004A082100D7004330CA00CF30A9
:1037A200C900A630C8006630C7005A08CE005908C2
:1037B200CD005808CC005708CB00B331BC23993157
:1037C20040302000CD000030CC000030CB00003073
:1037D200CA00210068082000D100210067082000EB
:1037E200D000210066082000CF00210065082000DB
:1037F200CE0098312420993120004D082100DE00AE
:1038020020004C082100DD0020004B082100DC00D4
:1038120020004A082100DB004330CA00C430C9003E
:103822000030C8000030C7005E08CE005D08CD0041
:103832005C08CC005B08CB00A831142099314030E1
:103842002000B3000030B2000030B1000030B00000
:10385200210068082000B700210067082000B60098
:10386200210066082000B500210065082000B40090
:10387200AD31C5259931200033082100C90020004F
:1038820032082100C800200031082100C7002000B2
:1038920030082100C600A0311220993143302100A6
:1038A200CA00C430C9000030C8000030C700680830
:1038B200CE006708CD006608CC006508CB00B331A6
:1038C200BC23993140302000CD000030CC000030C4
:1038D200CB000030CA00210068082000D10021007E
:1038E20067082000D000210066082000CF002100D8
:1038F20065082000CE0098312420993120004D081F
:103902002100DE0020004C082100DD0020004B08D1
:103912002100DC0020004A082100DB004330CA00FD
:10392200C430C9000030C8000030C7005E08CE00B5
:103932005D08CD005C08CC005B08CB00A8311420E8
:10394200993140302000CD000030CC000030CB0057
:103952000030CA00210068082000D1002100670859
:103962002000D000210066082000CF002100650859
:103972002000CE0098312420993120004D082100EA
:10398200DE0020004C082100DD0020004B08210051
:10399200DC0020004A082100DB004330CA00CF309F
:1039A200C900A630C8006630C7005E08CE005D08B8
:1039B200CD005C08CC005B08CB00A8311420993103
:1039C20043302100CA00C430C9000030C8000030B2
:1039D200C7006808CE006708CD006608CC006508FD
:1039E200CB00A8311420993143302100CA00C430E1
:1039F200C9000030C8000030C7006808CE00670860
:103A0200CD006608CC006508CB00A831142099319E
:103A120043302100CA00CF30C900A630C80066304A
:103A2200C7006808CE006708CD006608CC006508AC
:103A3200CB00A8311420993143302100CA00C43090
:103A4200C9000030C8000030C7006808CE0067080F
:103A5200CD006608CC006508CB00A831142099314E
:103A620043302100CA00C430C9000030C800003011
:103A7200C7006808CE006708CD006608CC0065085C
:103A8200CB00A8311420993143302100CA00CF3035
:103A9200C900A630C8006630C7006808CE006708B3
:103AA200CD006608CC006508CB00A83114209931FE
:103AB20043302100CA00C430C9000030C8000030C1
:103AC200C7006808CE006708CD006608CC0065080C
:103AD200CB00A8311420993140302000CD000030B5
:103AE200CC000030CB000030CA0021006808200062
:103AF200D100210067082000D000210066082000C4
:103B0200CF00210065082000CE0098312420993191
:103B120020004D082100DA0020004C082100D900C5
:103B220020004B082100D80020004A082100D700BD
:103B32004330CA00CF30C900A630C8006630C70083
:103B42005A08CE005908CD005808CC005708CB00BF
:103B5200B331BC23993140302000CD000030CC007D
:103B62000030CB000030CA00210068082000D100DC
:103B7200210067082000D000210066082000CF0045
:103B8200210065082000CE009831242099312000C0
:103B92004D082100DE0020004C082100DD0020003D
:103BA2004B082100DC0020004A082100DB004330E2
:103BB200CA00C430C9000030C8000030C7005E0827
:103BC200CE005D08CD005C08CC005B08CB00A831BC
:103BD2001420993140302000B3000030B200003090
:103BE200B1000030B000210068082000B7002100B9
:103BF20067082000B600210066082000B5002100F9
:103C020065082000B400AD31C52599312000330884
:103C12002100C900200032082100C800200031081C
:103C22002100C700200030082100C600A031122068
:103C3200993143302100CA00AE30C9009D30C8001E
:103C42007130C7006808CE006708CD006608CC0056
:103C52006508CB00A8311420993143302100CA00F5
:103C6200C430C9000030C8000030C7006808CE0068
:103C72006708CD006608CC006508CB00A831142087
:103C8200993143302100CA00AE30C9009D30C800CE
:103C92007130C7006808CE006708CD006608CC0006
:103CA2006508CB00A8311420993143302100CA00A5
:103CB200CF30C900A630C8006630C7006808CE0001
:103CC2006708CD006608CC006508CB00A831142037
:103CD200993143302100CA00C430C9000030C80005
:103CE2000030C7006808CE006708CD006608CC0027
:103CF2006508CB00A8311420993143302100CA0055
:103D0200AE30C9009D30C8007130C7006808CE00CF
:103D12006708CD006608CC006508CB00A8311420E6
:103D2200993143302100CA00E930C9000030C8008F
:103D32000030C7006808CE006708CD006608CC00D6
:103D42006508CB00B331BC23993140302000CD004F
:103D52000030CC000030CB000030CA0021006808DF
:103D62002000D100210067082000D0002100660851
:103D72002000CF00210065082000CE0098312420C9
:103D8200993120004D082100DA0020004C08210062
:103D9200D90020004B082100D80020004A08210049
:103DA200D7004330CA00CF30C900A630C800663001
:103DB200C7005A08CE005908CD005808CC00570851
:103DC200CB00B331BC23993140302000CD0000300C
:103DD200CC000030CB000030CA002100680820006F
:103DE200D100210067082000D000210066082000D1
:103DF200CF00210065082000CE009831242099319F
:103E020020004D082100DA0020004C082100D900D2
:103E120020004B082100D80020004A082100D700CA
:103E22004330CA00E930C9000030C8000030C70082
:103E32005A08CE005908CD005808CC005708CB00CC
:103E4200B331BC23993140302000CD000030CC008A
:103E52000030CB000030CA00210068082000D100E9
:103E6200210067082000D000210066082000CF0052
:103E7200210065082000CE009831242099312000CD
:103E82004D082100DA0020004C082100D900200052
:103E92004B082100D80020004A082100D7004330F7
:103EA200CA00CF30C900A630C8006630C7005A0821
:103EB200CE005908CD005808CC005708CB00B331CA
:103EC200BC23993140302000CD000030CC000030BE
:103ED200CB000030CA00210068082000D100210078
:103EE20067082000D000210066082000CF002100D2
:103EF20065082000CE0098312420993120004D0819
:103F02002100DE0020004C082100DD0020004B08CB
:103F12002100DC0020004A082100DB004330CA00F7
:103F2200E930C9000030C8000030C7005E08CE008A
:103F32005D08CD005C08CC005B08CB00A8311420E2
:103F4200993140302000B3000030B2000030B1009F
:103F52000030B000210068082000B7002100670887
:103F62002000B600210066082000B5002100650887
:103F72002000B400AD31C52599312000330821005D
:103F8200D600200032082100D5002000310821008F
:103F9200D400200030082100D3004330CA00CF30C3
:103FA200C900A630C8006630C7005608CE005508C2
:103FB200CD005408CC005308CB00A831142099310D
:103FC20021006808C9006708C8006608C7006508BC
:103FD200C600A0311220993101302100D1070030F2
:103FE200D23D5208803AFD0080307D02031DFB2F36
:103FF20002305102031CFE2FFF2FD129080020009E
:104002001C08FC3902389C0087309C0508000034EB
:1040120000348034403400340034803440348234FC
:10402200003400302100BA00BB00AA31EB22A031DB
:104032002100EC01ED014908B3004808B20047082D
:10404200B1004608B00090310120A03121003108B2
:104052006D02031D2E2830086C02031C3128322801
:104062001C28080021004A08BD004908BC00480875
:10407200BB004708BA00AB31B423A03121004F087E
:10408200D000D1015008BA005108BB00AA31EB227E
:10409200A0312100EC01ED0121006C082000A600F6
:1040A20021006D082000A700A801A9010030A93154
:1040B2009121A031200029082100AB00200028080E
:1040C2002100AA00200027082100A90020002608BC
:1040D2002100A8004E08AF004D08AE004C08AD000C
:1040E2004B08AC00B531C525A031031C79287A28CC
:1040F2004D2800302100BA00BB00AA31EB22A031CA
:104102000800200067088039EC006735EE00E61FE2
:104112008B288C288D286E146E08031991289228FA
:10412200A2286E0A031D962897289F280030E700D0
:104132000030E6000030E5000030E400E617E70159
:10414200AA280030E7000030E6000030E500003029
:10415200E4006B088039ED006D086C060319B22883
:10416200B328B4286C176B35ED00EA1FB928BA28BA
:10417200BB286D146D080319BF28C028D0286D0A0A
:10418200031DC428C528CD280030EB000030EA000A
:104192000030E9000030E800EA17EB01D8280030CF
:1041A200EB000030EA000030E9000030E8006E0861
:1041B2006D020318DD28DE2806296C1FE128E2289B
:1041C200E82880302100A00020082000EC066E08BC
:1041D200EF006D08EE006F08ED006408EF0068085C
:1041E200E4006F08E8006508EF006908E5006F0861
:1041F200E9006608EF006A08E6006F08EA0067084F
:10420200EF006B08E7006F08EB00EF016D0821007B
:10421200A000A1012108A30020006E0821002002B5
:10422200A200031CA3032308803AA40080302402C6
:10423200031D1D291A302202031C20292129572976
:1042420020006708660465046404031D29292B29DC
:1042520001302C290030EF000030E7000030E6008A
:104262000030E5000030E4006D08EE005E296F1CAE
:104272003B293C2940296F360138EF0042290310BF
:10428200EF0C641C452946294729EF17013021000C
:10429200A0002000E737E60CE50CE40C2100A00B9F
:1042A2004A290130A00020082000EE0720006D08F6
:1042B2006E02031C5D295E2938296C1B6129622963
:1042C2009C296E08031D6629672970290030E700C2
:1042D2000030E6000030E5000030E400BE2A680845
:1042E200E4076908E53D6A08E63D6B08E73D671C9F
:1042F2007B297C293E2A6F1C7F29802984296F36DD
:104302000138EF0086290310EF0C641C89298A29E1
:104312008B29EF1701302100A0002000E737E60CBF
:10432200E50CE40C2100A00B8E290130A00020082E
:104332002000EE073E2A6708803A2100A0002000F4
:104342006B08803A210020022000031DB2296A086E
:104352006602031DB22969086502031DB2296808B5
:1043620064020318B529B629002AFF302100A000F3
:10437200FF30A100FF30A200FF30A300200064083C
:1043820068022100A40020006508693B2100A50005
:10439200200066086A3B2100A600200067086B3BEC
:1043A2002100A7002408A0072508A13D2608A23D58
:1043B2002708A33D23082000E7002100220820004F
:1043C200E600210021082000E5002100200820004D
:1043D200E40080302100A00020082000EC06EF0954
:1043E200EF0A6F08031DF629F729082A0130E407AE
:1043F2000030E53D0030E63D0030E73D082A680820
:10440200E4026908E53B6A08E63B6B08E73B67089C
:10441200660465046404031D0F2A102A3A2A6F08F1
:10442200031D142A152A3A2A0030E7000030E6005C
:104432000030E5000030E400BE2A0130E435E50D2D
:10444200E60DE70D890B1F2AEF1F282A292A2A2A9F
:1044520064146F1C2D2A2E2A312A0314EF0D332ADD
:104462000310EF0D6E080319372A382A3A2A013051
:10447200EE02E61F3D2A3E2A1E2AED01EF1F422AC6
:10448200432A512A6F087F390319482A492A4C2A9C
:10449200ED01ED0A512A641C4F2A502A512A492A59
:1044A2006D080319552A562A932A0130E407003071
:1044B200E53D0030E63D0030E73D671C612A622A97
:1044C200932A64082100A000200065082100A100B1
:1044D200200066082100A200200067082100A30036
:1044E2000130A400A337A20CA10CA00CA40B732AC8
:1044F20023082000E700210022082000E600210016
:1045020021082000E500210020082000E4006E0AB6
:1045120003198C2A8D2A932A01302100A000200839
:104522002000EE076E0A0319972A982A9D2A6E0820
:10453200031D9C2A9D2AAB2A0030E7000030E600CA
:104542000030E5000030E4006E08031DA92AAA2A03
:10455200AB2AEC016E1CAE2AAF2AB12AE617B72AA3
:104562007F302100A00020082000E6056E36E7001B
:10457200EC1FBC2ABD2ABE2AE717080043302100DF
:10458200CA00CF30C900A630C8006630C70068082C
:10459200CE006708CD006608CC006508CB00A831C4
:1045A2001420A23143302100CA00CF30C900A63006
:1045B200C8006630C7006808CE006708CD006608EC
:1045C200CC006508CB00A8311420A2314330210071
:1045D200CA00CF30C900A630C8006630C7006808DC
:1045E200CE006708CD006608CC006508CB00A83174
:1045F2001420A23140302000B3000030B20000305D
:10460200B1000030B000210068082000B70021008E
:1046120067082000B600210066082000B5002100CE
:1046220065082000B400AD31C525A2312000330851
:104632002100D400200032082100D30020003108DC
:104642002100D200200030082100D1004330CA00EE
:10465200E930C9000030C8000030C7005408CE005D
:104662005308CD005208CC005108CB00A8311420C9
:10467200A23143302100CA00E930C9000030C8002D
:104682000030C7006808CE006708CD006608CC007D
:104692006508CB00A8311420A23143302100CA00A2
:1046A200CF30C900A630C8006630C7006808CE0007
:1046B2006708CD006608CC006508CB00A83114203D
:1046C200A23143302100CA00CF30C900A630C80051
:1046D2006630C7006808CE006708CD006608CC00C7
:1046E2006508CB00A8311420A23143302100CA0052
:1046F200CF30C900A630C8006630C7006808CE00B7
:104702006708CD006608CC006508CB00A8311420EC
:10471200A23143302100CA00E930C9000030C8008C
:104722000030C7006808CE006708CD006608CC00DC
:104732006508CB00A8311420A23140302000B3001C
:104742000030B2000030B1000030B0002100680833
:104752002000B700210067082000B600210066088B
:104762002000B500210065082000B400AD31C52548
:10477200A231200033082100C900200032082100A4
:10478200C800200031082100C700200030082100A5
:10479200C600A0311220A23143302100CA00C43029
:1047A200C9000030C8000030C7006808CE006708A2
:1047B200CD006608CC006508CB00A8311420A231D8
:1047C20043302100CA00C430C9000030C8000030A4
:1047D200C7006808CE006708CD006608CC006508EF
:1047E200CB00A8311420A23143302100CA00C430CA
:1047F200C9000030C8000030C7006808CE00670852
:10480200CD006608CC006508CB00A8311420A23187
:1048120040302000B3000030B2000030B100003060
:10482200B000210068082000B700210067082000BE
:10483200B600210066082000B500210065082000AE
:10484200B400AD31C525A231200033082100D400C7
:10485200200032082100D300200031082100D200BC
:10486200200030082100D1004330CA00CF30C900F7
:10487200A630C8006630C7005408CE005308CD00E9
:104882005208CC005108CB00A8311420A231433089
:104892002100CA00C430C9000030C8000030C7007F
:1048A2006808CE006708CD006608CC006508CB001A
:1048B200A8311420A23121006808C9006708C80085
:1048C2006608C7006508C600A0311220A231433035
:1048D2002100CA00E930C9000030C8000030C7001A
:1048E2006808CE006708CD006608CC006508CB00DA
:1048F200A8311420A23143302100CA00C430C900BB
:104902000030C8000030C7006808CE006708CD003C
:104912006608CC006508CB00A8311420A2314030D3
:104922002000CD000030CC000030CB000030CA00A7
:10493200210068082000D100210067082000D00073
:10494200210066082000CF00210065082000CE006B
:1049520098312420A23120004D082100D8002000E7
:104962004C082100D70020004B082100D60020006F
:104972004A082100D5004330CA00CF30C900A63012
:10498200C8006630C7005808CE005708CD00560848
:10499200CC005508CB00B331BC23A23140302000FB
:1049A200CD000030CC000030CB000030CA00210026
:1049B20068082000D100210067082000D0002100F3
:1049C20066082000CF00210065082000CE00983143
:1049D2002420A23120004D082100DC0020004C08D8
:1049E2002100DB0020004B082100DA0020004A08E9
:1049F2002100D9004330CA00C430C9000030C800C9
:104A02000030C7005C08CE005B08CD005A08CC001D
:104A12005908CB00A8311420A23140302000B30045
:104A22000030B2000030B1000030B0002100680850
:104A32002000B700210067082000B60021006608A8
:104A42002000B500210065082000B400AD31C52565
:104A5200A231200033082100C900200032082100C1
:104A6200C800200031082100C700200030082100C2
:104A7200C600A0311220A23143302100CA00C43046
:104A8200C9000030C8000030C7006808CE006708BF
:104A9200CD006608CC006508CB00B331BC23A2313F
:104AA20040302000CD000030CC000030CB00003080
:104AB200CA00210068082000D100210067082000F8
:104AC200D000210066082000CF00210065082000E8
:104AD200CE0098312420A23120004D082100DC00B4
:104AE20020004C082100DB0020004B082100DA00E6
:104AF20020004A082100D9004330CA00C430C9004E
:104B02000030C8000030C7005C08CE005B08CD0052
:104B12005A08CC005908CB00A8311420A2314030E9
:104B22002000CD000030CC000030CB000030CA00A5
:104B3200210068082000D100210067082000D00071
:104B4200210066082000CF00210065082000CE0069
:104B520098312420A23120004D082100DC002000E1
:104B62004C082100DB0020004B082100DA00200065
:104B72004A082100D9004330CA00CF30C900A6300C
:104B8200C8006630C7005C08CE005B08CD005A083A
:104B9200CC005908CB00A8311420A23143302100A7
:104BA200CA00C430C9000030C8000030C70068081D
:104BB200CE006708CD006608CC006508CB00A8319E
:104BC2001420A23143302100CA00C430C900003091
:104BD200C8000030C7006808CE006708CD0066082C
:104BE200CC006508CB00A8311420A231433021004B
:104BF200CA00CF30C900A630C8006630C7006808B6
:104C0200CE006708CD006608CC006508CB00A8314D
:104C12001420A23143302100CA00C430C900003040
:104C2200C8000030C7006808CE006708CD006608DB
:104C3200CC006508CB00A8311420A23143302100FA
:104C4200CA00C430C9000030C8000030C70068087C
:104C5200CE006708CD006608CC006508CB00A831FD
:104C62001420A23143302100CA00CF30C900A6303F
:104C7200C8006630C7006808CE006708CD00660825
:104C8200CC006508CB00A8311420A23143302100AA
:104C9200CA00C430C9000030C8000030C70068082C
:104CA200CE006708CD006608CC006508CB00A831AD
:104CB2001420A23140302000CD000030CC00003062
:104CC200CB000030CA00210068082000D10021007A
:104CD20067082000D000210066082000CF002100D4
:104CE20065082000CE0098312420A23120004D0812
:104CF2002100D80020004C082100D70020004B08DA
:104D02002100D60020004A082100D5004330CA0005
:104D1200CF30C900A630C8006630C7005808CE00A0
:104D22005708CD005608CC005508CB00B331BC2340
:104D3200A23140302000CD000030CC000030CB004A
:104D42000030CA00210068082000D1002100670855
:104D52002000D000210066082000CF002100650855
:104D62002000CE0098312420A23120004D082100DD
:104D7200DC0020004C082100DB0020004B08210051
:104D8200DA0020004A082100D9004330CA00C430AA
:104D9200C9000030C8000030C7005C08CE005B08C4
:104DA200CD005A08CC005908CB00A8311420A231FA
:104DB20040302000B3000030B2000030B1000030BB
:104DC200B000210068082000B70021006708200019
:104DD200B600210066082000B50021006508200009
:104DE200B400AD31C525A231200033082100C9002D
:104DF200200032082100C800200031082100C7002D
:104E0200200030082100C600A0311220A231433018
:104E12002100CA00AE30C9009D30C8007130C70001
:104E22006808CE006708CD006608CC006508CB0094
:104E3200A8311420A23143302100CA00C430C90075
:104E42000030C8000030C7006808CE006708CD00F7
:104E52006608CC006508CB00A8311420A23143308B
:104E62002100CA00AE30C9009D30C8007130C700B1
:104E72006808CE006708CD006608CC006508CB0044
:104E8200A8311420A23143302100CA00CF30C9001A
:104E9200A630C8006630C7006808CE006708CD009B
:104EA2006608CC006508CB00A8311420A23143303B
:104EB2002100CA00C430C9000030C8000030C70059
:104EC2006808CE006708CD006608CC006508CB00F4
:104ED200A8311420A23143302100CA00AE30C900EB
:104EE2009D30C8007130C7006808CE006708CD0049
:104EF2006608CC006508CB00A8311420A2314330EB
:104F02002100CA00AE30C9009D30C8007130C70010
:104F12006808CE006708CD006608CC006508CB00A3
:104F2200A8311420A23143302100CA00C430C90084
:104F32000030C8000030C7006808CE006708CD0006
:104F42006608CC006508CB00A8311420A23143309A
:104F52002100CA00AE30C9009D30C8007130C700C0
:104F62006808CE006708CD006608CC006508CB0053
:104F7200A8311420A23143302100CA00CF30C90029
:104F8200A630C8006630C7006808CE006708CD00AA
:104F92006608CC006508CB00A8311420A23140304D
:104FA2002000B3000030B2000030B1000030B00089
:104FB200210068082000B700210067082000B60021
:104FC200210066082000B500210065082000B40019
:104FD200AD31C525A231200033082100C9002000CF
:104FE20032082100C800200031082100C70020003B
:104FF20030082100C600A0311220A231080025008D
:105002009311131108008B178B160B110630200019
:1050120095000800210095111508F839033895000C
:1050220015129512080021004A08BD004908BC006B
:105032004808BB004708BA00AB31B423A8312100AD
:105042006908CF00D0014F08BA005008BB00AA314E
:10505200EB22A8312100EC01ED014E08B3004D080E
:10506200B2004C08B1004B08B00090310120A831C9
:1050720021003008CE3ECF00FF30313DD000500835
:105082006D02031D46284F086C02031C49284A285A
:105092002E280030BA00BB00AA31EB22A831210031
:1050A200EC01ED0100306D02323003196C02031C79
:1050B2005B285C28532808002000B3004030B2006F
:1050C2000030B1000030B000210068082000B700B5
:1050D200210067082000B600210066082000B50004
:1050E200210065082000B400AD31C525A83120009B
:1050F20033082100C900200032082100C800200026
:1051020031082100C700200030082100C600A0316C
:105112001220A83143302100CA00CF30C900A63086
:10512200C8006630C7006808CE006708CD00660870
:10513200CC006508CB00B331BC23A8314330210039
:10514200CA00E930C9000030C8000030C700680852
:10515200CE006708CD006608CC006508CB00B331ED
:10516200BC23A83140302000CD000030CC000030FC
:10517200CB000030CA00210068082000D1002100C5
:1051820067082000D000210066082000CF0021001F
:1051920065082000CE0098312420A83120004D0857
:1051A2002100E40020004C082100E30020004B080D
:1051B2002100E20020004A082100E1004330CA0039
:1051C200E930C9000030C8000030C7006408CE00D2
:1051D2006308CD006208CC006108CB00A83114201E
:1051E200A8314030A831F5282000CD000030CC0095
:1051F2000030CB000030CA00210068082000D10036
:10520200210067082000D000210066082000CF009E
:10521200210065082000CE0098312420A83120000A
:105222004D082100E40020004C082100E30020008A
:105232004B082100E20020004A082100E10043302F
:10524200CA00CF30C900A630C8006630C700640863
:10525200CE006308CD006208CC006108CB00A83103
:105262001420A83140302000CD000030CC000030A6
:10527200CB000030CA00210068082000D1002100C4
:1052820067082000D000210066082000CF0021001E
:1052920065082000CE0098312420A83120004D0856
:1052A2002100E40020004C082100E30020004B080C
:1052B2002100E20020004A082100E1004330CA0038
:1052C200CF30C900A630C8006630C7006408CE00DF
:1052D2006308CD006208CC006108CB00A83114201D
:1052E200A83140302000CD000030CC000030CB008F
:1052F2000030CA00210068082000D10021006708A0
:105302002000D000210066082000CF00210065089F
:105312002000CE0098312420A8312000803164285A
:105322002000AA002A08031997299829AC29A91F45
:105332009B299C29AC292609AC002709AD00280924
:10534200AE002909AF00AC0A0319AD0A0319AE0A6F
:105352000319AF0AB4292908AF002808AE002708AC
:10536200AD002608AC002908280427042604031DE2
:10537200BB29BC29C5290030A9000030A800003093
:10538200A7000030A6003B2A9630AB00D32901309B
:10539200F9007908AB070130AF36AE0CAD0CAC0C9E
:1053A200890BCD29FE302F05031DD829D929C829FB
:1053B200ED290130F9007908AB070130AC07003064
:1053C200AD3D0030AE3D0030AF3D0130AF36AE0CEA
:1053D200AD0CAC0C890BE729FF302F05031DF22918
:1053E200F329DA29FD290130AB020130AC35AD0DCC
:1053F200AE0DAF0D890BF729AE1B002A012A072A31
:1054020002302B020318062A072AF4292B180A2A2B
:105412000B2A132AFF30AC05FF30AD057F30AE05F5
:10542200FF30AF050310AB0C2B08F900FA01FB01AA
:10543200FC011830F935FA0DFB0DFC0D890B1B2A06
:105442007908AC047A08AD047B08AE047C08AF048A
:105452002A0803192D2A2E2A332AA91F312A322A71
:10546200332AAF172F08A9002E08A8002D08A7007D
:105472002C08A6000800BE302200C5000030C6007D
:105482004030C400C030C3000030C2000030C10050
:105492000030F7000030F600EA30F5006030F4002A
:1054A2004508F0004608F100F201F301B631DE26AC
:1054B200AA3173082000A9007208A8007108A70089
:1054C2007008A6000130A9319121AA3120002908D3
:1054D2002100E800200028082100E700200027081A
:1054E2002100E600200026082100E50068082000CF
:1054F200D100210067082000D000210066082000AA
:10550200CF00210065082000CE004130CD000030E0
:10551200CC000030CB000030CA0098312420AA31E0
:1055220020004D082100B30020004C082100B200E9
:1055320020004B082100B10020004A082100B000E1
:1055420090310120AA31210031082200CA00210035
:1055520030082200C90021006808AF006708AE00C9
:105562006608AD006508AC00220049082000A600CC
:1055720022004A082000A700A801A9010030A93191
:105582009121AA31200029082100AB00200028081F
:105592002100AA00200027082100A90020002608D7
:1055A2002100A800B3318623AA3121002B08B300C1
:1055B2002A08B2002908B1002808B0009031012061
:1055C200AA31210031082200C8002100300822003F
:1055D200C7000800003021003B02203003193A02C4
:1055E2000318F42AF52A822B3B08F3003A08F2004A
:1055F20020001B082100BC00BD013C08F0003D0852
:10560200F100B3316723AA3170082100BE0071088E
:10561200BF00C001C10141082000A90021004008CB
:105622002000A80021003F082000A70021003E081A
:105632002000A6000030A9319121AA3120002908BA
:10564200D1002808D0002708CF002608CE0041301C
:10565200CD008030CC000030CB000030CA00983141
:105662002420AA3120004D082100B30020004C085C
:105672002100B20020004B082100B10020004A089E
:105682002100B00090310120AA3121003108C5006B
:105692003008C40044084504031D502B512B5B2BDA
:1056A2003A083B040319562B572B5B2B0130C400DD
:1056B2000030C50044080239BC00BC0EBC0D2500F8
:1056C200130821003C06DF393C0625009300210027
:1056D20044080139BC00BC0E2500130821003C0619
:1056E200EF393C062500930021004508BD0044081F
:1056F200BC00BD36BC0CBD36BC0C3C08250091007C
:10570200B32B20001B082100BC00BD01BC35BD0D20
:105712003C08C2003D08C30042080239BC00BC0E6E
:10572200BC0D2500130821003C06DF393C0625008C
:105732009300210042080139BC00BC0E2500130869
:1057420021003C06EF393C06250093002100430866
:10575200BD004208BC00BD36BC0CBD36BC0C3C08CA
:1057620025009100080010302100C6003D08AB0062
:105772003C08AA003B08A9003A08A8004430AF0040
:105782007730AE000030AD000030AC00B531C52539
:10579200AB310318CD2BCE2BD12B40302100C600CC
:1057A200103021004606031DD72BD82BDE2B2000FC
:1057B2001C08FC3902389C00E72B40304606031DCA
:1057C200E32BE42BE72B033020009C0421003D084F
:1057D2002000B70021003C082000B60021003B0851
:1057E2002000B50021003A082000B4004030B30088
:1057F2008030B2000030B1000030B000AD31C525BC
:10580200AB31200033082100C500200032082100FE
:10581200C400200031082100C3002000300821000C
:10582200C2004B302000D1007430D0002430CF00B1
:105832000030CE00210045082000B70021004408B6
:105842002000B600210043082000B50021004208D4
:105852002000B40021004608BE00BF01C001C10102
:1058620041082000A900210040082000A8002100D2
:105872003F082000A70021003E082000A6000130BA
:10588200A9319121AB3120002908B3002808B200C8
:105892002708B1002608B000AD31C525AB31200084
:1058A2003308CD003208CC003108CB003008CA00E2
:1058B20098312420AB3120004D08EB004C08EA005F
:1058C2004B08E9004A08E800BF30E7008030E600F4
:1058D2000030E5000030E400A0318220AB3120002E
:1058E20067082100B300200066082100B2002000F2
:1058F20065082100B100200064082100B000903149
:105902000120AB312100300820009B00080022005A
:1059120049082000A60022004A082000A700A8018A
:10592200A9010030A9319121AC31200029082200BF
:10593200A800200028082200A70020002708220033
:10594200A600200026082200A50044302100CA003B
:105952009630C9000030C8000030C7002200280875
:105962002100CE00220027082100CD0022002608B7
:105972002100CC00220025082100CB006908CF00BD
:10598200A0313320AC31220047082000A6002200BB
:1059920048082000A700A801A9010030A9319121DF
:1059A200AC31200029082200AC0020002808220087
:1059B200AB00200027082200AA00200026082200AF
:1059C200A9002C082100C90022002B082100C800D0
:1059D20022002A082100C700220029082100C6004F
:1059E200A0311220AC312200A401692D2200490805
:1059F2002000A60022004A082000A700A801A90151
:105A02000030A9319121AC31200029082200A800E0
:105A1200200028082200A700200027082200A60054
:105A2200200026082200A50044302100CA0061306F
:105A3200C9000030C8000030C70022002808210039
:105A4200CE00220027082100CD00220026082100D6
:105A5200CC00220025082100CB006908CF00A0312C
:105A62003320AC31220047082000A600220048085B
:105A72002000A700A801A9010030A9319121AC3171
:105A8200200029082200AC00200028082200AB00D8
:105A9200200027082200AA00200026082200A900D0
:105AA2002C082100C90022002B082100C800220076
:105AB2002A082100C700220029082100C600A031BF
:105AC2001220AC3101302100D20052082200A4077A
:105AD20024082100D200D301D401D50155082000A9
